:100000000C9451010C9452110C9479110C94A01180
:100010000C94C7110C9479010C9479010C94EE1195
:100020000C9479010C9459180C94540E0C94EA0F0A
:100030000C9479010C9479010C9479010C94790158
:100040000C9479010C9479010C9479010C94790148
:100050000C94DA060C9479010C9479010C94151225
:100060000C9479010C94C9080C94FB080C94790148
:100070000C9479010C9479010C9479010C94790118
:100080000C94C90B0C9479010C9479010C947901AE
:100090000C94351B0C9479010C9409050C9479018E
:1000A0000C9479010C9479010C94790139133C1367
:1000B0002B132F1335135D135D135D13401344137E
:1000C00048134E1352135D13581305010906A1017D
:1000D00075019508050719E029E71500250181023A
:1000E0009501750881039505750105081901290514
:1000F0009102950175039103950675081500256514
:100100000507190029658100C000000000000000FB
:10011000002A2B2800000000000000000000000062
:100120000000000000000000002C9EB4A0A1A2A4CA
:1001300034A6A7A5AE362D3738271E1F202122232F
:10014000242526B333B62EB7B89F84858687888941
:100150008A8B8C8D8E8F9091929394959697989987
:100160009A9B9C9D2F3130A3AD35040506070809E5
:100170000A0B0C0D0E0F1011121314151617181967
:100180001A1B1C1DAFB1B0B500080B000202020122
:10019000000904000001020200000524001001050E
:1001A000240101010424020605240600010705813B
:1001B0000310004009040100020A000000070502C4
:1001C000024000000705830240000012010002EF18
:1001D00002014041233680000101020301120100A7
:1001E000020000004041233680000101020301416A
:1001F000726475696E6F204C4C4300555342204920
:100200004F20426F61726400040309040000000281
:1002100000090F0000030401000C000000000000B2
:1002200000000000000000000000000408020110AF
:10023000408040102040804080080204018040201F
:100240001002011080102040402004040404040324
:100250000405020202020403020202020606060666
:100260000606040402020204040000000023002623
:100270000029002C002F0000000000250028002B82
:10028000002E00310000000000240027002A002D6D
:10029000003000007D02EE072B09CB0AF514621C2A
:1002A0001E1511241FBECFEFDAE0DEBFCDBF11E077
:1002B000A0E0B1E0E8EAFEE302C005900D92AE3E98
:1002C000B107D9F715E0AEEEB1E001C01D92A5343B
:1002D000B107E1F711E0C0E5D1E004C02197FE01CC
:1002E0000E94CF1CCA34D107C9F70E94D70A0C94C8
:1002F000471F0C940000FC01138212822BE231E0B4
:100300003183208380910002811113C01092EF018C
:100310001092EE018AEC90E09093F1018093F0014D
:100320008FE390E09093F3018093F20181E080935A
:1003300000020E947B0A6EEE71E00C94370A089569
:10034000CF93DF93EB010E947B0A28E030E0AE01FF
:1003500062E0DF91CF910C94540ADC01683810F010
:1003600068582DC0E62FF0E067FF11C0E058F10992
:1003700081E090E001C0880FEA95EAF714969C911D
:100380001497892B14968C93149760E018C0E75F3C
:10039000FE4F6491611109C081E090E013969C9337
:1003A0008E93129780E090E0089567FF08C014963E
:1003B0008C911497826014968C9314976F7716968D
:1003C0008C911697861751F117968C91179786176F
:1003D00029F118968C911897861701F119968C912E
:1003E00019978617D9F01A968C911A978617B1F03B
:1003F0001B968C911B97861789F0FD01369680E03D
:1004000090E02191211105C0FD01E80FF91F6683DD
:1004100005C0019686309105A1F7BECFCD01BD0183
:100420006C5F7F4F0E94A00181E090E00895DC01A5
:10043000683810F0685825C0E62FF0E067FF12C05A
:10044000E058F10981E090E001C0880FEA95EAF7F1
:10045000809514969C911497892314968C931497E5
:1004600060E00FC0E75FFE4F6491662301F167FF14
:1004700008C014968C9114978D7F14968C931497C2
:100480006F77FD01369686E0662321F09081961302
:1004900001C01082815031968111F6CFCD01BD018E
:1004A0006C5F7F4F0E94A00181E090E0089580E0A2
:1004B00090E00895EF92FF921F93CF93DF93EC01AA
:1004C000162F0E94AD017C01612FCE010E94170200
:1004D000C7019927DF91CF911F91FF90EF90089569
:1004E000FC011682178210861186128613861482EA
:1004F000BC016C5F7F4F0C94A00184EF91E00C94E1
:100500007B01FC0112828FEF818310821382089598
:10051000FC018381882331F0611103C08FEF818357
:100520000895118208958BEA94E00E940F1A8BEAD5
:1005300094E00E94AA1A91E0811190E0892F089519
:10054000CF93DF93EC016A838BEA94E00E94371A21
:100550006A81CE010E9493028B83882329F08BEA63
:1005600094E00E94DE1788838B8190E0DF91CF9129
:100570000895CF93DF93FC0123812223B1F0EC0196
:10058000818180956823608362818BEA94E00E9478
:100590000F1A68818BEA94E00E94C61A8BEA94E0F5
:1005A0000E94AA1A282F30E002C020E030E081E04B
:1005B00090E0232B11F080E090E0DF91CF9108953F
:1005C00008950895DC01ED91FC910284F385E02DFE
:1005D00041E0099581E090E00895FC0113821282C8
:1005E00023E331E0318320830895DC01ED91FC9118
:1005F0000084F185E02D6FEF0994DC01ED91FC9111
:100600000284F385E02D40E0099461E00E94FD0240
:1006100080ED97E00C94C012CF93DF93CDB7DEB797
:1006200028970FB6F894DEBF0FBECDBFFC011D8228
:1006300080E48E8394E19F8394E5988719828A836E
:1006400080E18B8380E58C838781481710F04FEF22
:10065000480F908550E0DE01A40FB51F903129F4BA
:10066000843019F411969C9102C015969C91690FE3
:100670006068CF0128960FB6F894DEBF0FBECDBFDD
:10068000DF91CF910C94FD02FC016581262F24603F
:1006900025836C600C94FD02CF93DF93EC01423014
:1006A00018F08C8188608C834F836887222329F01F
:1006B000413019F48C8184608C8364E670E080E0C2
:1006C00090E00E9484126C8164FD31C0E881F98160
:1006D0000284F385E02D42E063E0CE01099584E9D0
:1006E00091E10E94C012E881F9810284F385E02D36
:1006F00042E063E0CE01099586E990E00E94C012D5
:10070000E881F9810284F385E02D42E063E0CE01C7
:10071000099586E990E00E94C012E881F98102847F
:10072000F385E02D42E062E0CE01099516C06062DB
:10073000CE010E94FD0284E991E10E94C0126C8109
:100740006062CE010E94FD0286E990E00E94C01224
:100750006C816062CE010E94FD0286E990E00E94F9
:10076000C0126C816062CE010E94FD028CE390E0B9
:100770000E94C01284E08D83CE010E944403CE010A
:100780000E94050382E08E8366E0CE010E94FD0296
:10079000CE01DF91CF910C94F50221E001C0220F30
:1007A0006A95EAF7DC011C962C931C971A965C93C9
:1007B0004E931997ED91FC910084F185E02D60E056
:1007C0000994FC0184858823A9F0218532852115AF
:1007D000310519F4611106C007C02130310521F43B
:1007E000611102C0858701C015866585CF010E960F
:1007F0000C94B90208950F931F93CF93DF938C014C
:10080000EC012E96FC016385CE010E94A0020197A7
:1008100069F461E0CE010E948802F801148260E070
:10082000CE010E94B90281E090E002C080E090E039
:10083000DF91CF911F910F9108958F92AF92CF9238
:10084000EF920F93CF93DF93CDB7DEB7FC016387B1
:10085000148615861286118681E0982F01C0990FA3
:100860004A95EAF7928B982F01C0990F2A95EAF7DB
:10087000938B982F01C0990F0A95EAF7948B982FC4
:1008800001C0990FEA94EAF7958B982F01C0990F50
:10089000CA94EAF7968B982F01C0990FAA94EAF7A9
:1008A000978B01C0880F8A94EAF7808FDF91CF91F0
:1008B0000F91EF90CF90AF908F9008954F925F92ED
:1008C0006F927F928F92AF92CF92EF920F931F937E
:1008D000CF93DF9300D01F92CDB7DEB73C011A89CA
:1008E0004B885C882B834A8369830E94ED0283E4F2
:1008F00091E0F30191838083C3010E960E948102EF
:100900002B814A816981C3010E941D04A201612FCC
:10091000C3010F900F900F90DF91CF911F910F9116
:10092000EF90CF90AF908F907F906F905F904F90AF
:100930000C94CD03FF920F931F93CF93DF93EC01A1
:10094000F62E8C01025F1F4F9A89692BC8010E9405
:10095000B9029A8990956F2D6923C801DF91CF91D3
:100960001F910F91FF900C94B902362FFC017596E0
:1009700024E060E030FF02C05081652B36952150A5
:1009800031962111F7CF413011F4FC014489FC016B
:100990002585622B642B0C949A040F931F93CF939D
:1009A000DF93062F0F70423019F440E0602F10C023
:1009B000142F262FEC0130E0B90184E0759567957E
:1009C0008A95E1F7CE010E94B504412F602FCE0138
:1009D000DF91CF911F910F910C94B5040F931F934A
:1009E000CF93DF9300D01F92CDB7DEB78C012B835E
:1009F0004A8369830E94FB032B814A816981C80174
:100A00000F900F900F90DF91CF911F910F910C9449
:100A10004C031F920F920FB60F9211240F931F9346
:100A20002F933F934F935F936F937F938F939F93F6
:100A3000AF93BF93CF93DF93EF93FF938091060122
:100A40008F5F80930601882329F0E8E0F2E020E040
:100A500030E059C008E012E0EEE0F2E0C0E1D2E0A0
:100A6000CE010197DC014C91CF010197DC014111CE
:100A700003C028812223F9F02C9130E0808190E09E
:100A8000B901681B790B1616170644F4442389F044
:100A9000840F911D8217930764F40AC0672B49F0F5
:100AA0004881442331F0841B9109281739070CF43D
:100AB0009C01208302C08C91808380818823C9F0AF
:100AC000CF010597DC018C91AF0142505109D8014B
:100AD00012962D913C911397D9019C91DA018111C5
:100AE00003C08C91892B03C08C9180958923D901F7
:100AF0008C93075F1F4F39962996B2E00C3B1B077A
:100B000009F0AECFA2CF808187FD15C0E901C85F93
:100B1000DD4F809106019E8198130DC09981A281BD
:100B2000B3818C81911104C09C918095892302C06E
:100B30009C91892B8C933996275F3F4F243B31053D
:100B400011F7FF91EF91DF91CF91BF91AF919F91FD
:100B50008F917F916F915F914F913F912F911F9155
:100B60000F910F900FBE0F901F9018951092C0001C
:100B700094E09093C1001092C2001092C3001092B2
:100B8000C4001092D10092E89093D10090E4909329
:100B90007200E8E0F2E020E030E09FEF9083D901BE
:100BA000A85FBD4F11961C9211971382128217965F
:100BB0001C92179718961C923996275F3F4F243B3B
:100BC000310561F78093BC020895CF93442339F037
:100BD0001092BF001092BE009FEF90930601E8E0D4
:100BE000F2E090E0AFEF208187FF03C027FF06C04F
:100BF0004BC0281719F0AF3F41F404C0658387FD4F
:100C0000FACF46C0208127FDA92F9F5F39969431E6
:100C100051F787FD3DC0AF3F09F43AC0C82F89E0C6
:100C2000A802D0011124A85FBD4FCC932091BC0233
:100C300011962C9311978C2F992787FD9095FC0185
:100C4000E65BFD4FE491F0E0EE0FFF1FE958FD4F2A
:100C50004591549113965C934E931297FC01E55D78
:100C6000FD4FE4911496EC93149715966C93211113
:100C700002C060E001C061E08C2F0E949A1361E025
:100C80008C2FCF910C945E13AF3F09F0BECFBCCF39
:100C9000CF910895282F3FEF639FC001112464E690
:100CA00070E00E94661C822F0C94E5052F923F9203
:100CB0004F925F926F927F928F929F92AF92BF926C
:100CC000CF92DF92EF92FF920F931F93CF93DF9318
:100CD000CDB7DEB727970FB6F894DEBF0FBECDBFF6
:100CE00089831B015D834C8388E092E09F838E8320
:100CF00000E010E04A01A12CB12C80EFC82E8FE05B
:100D0000D82EE12CF12C2B01612C712C9981EE81D4
:100D1000FF81808197FF0DC087FF0EC08E819F816C
:100D200009969F838E83075F1F4F043B110571F760
:100D300027C0F9818F13F2CF2114310439F0C70194
:100D4000B601A30192010E948E1C01C020E0C801DF
:100D5000885F9D4F9B838A83FC0127838C819D81C3
:100D6000892B39F0C701B601A50194010E948E1CA0
:100D700001C020E0EA81FB812087F981F7FDCECF19
:100D800027960FB6F894DEBF0FBECDBFDF91CF918F
:100D90001F910F91FF90EF90DF90CF90BF90AF9099
:100DA0009F908F907F906F905F904F903F902F908B
:100DB000089508951F920F920FB60F9211242F934A
:100DC0003F934F935F936F937F938F939F93AF93D3
:100DD000BF93EF93FF93E0910701F091080109950C
:100DE000FF91EF91BF91AF919F918F917F916F9103
:100DF0005F914F913F912F910F900FBE0F901F90D9
:100E00001895CF93DF931F92CDB7DEB76983DC01CE
:100E1000ED91FC910280F381E02D41E050E0BE01B4
:100E20006F5F7F4F09950F90DF91CF910895CF931A
:100E3000DF93EC018C859D8597FF05C082E00E94C1
:100E4000270D9D878C878C859D85DF91CF91089597
:100E500083E00C944A0EFC018485958597FD06C0BD
:100E600082E00E94D10C90E00196089582E00E94F9
:100E7000D10C90E00895FC018485958597FD05C00F
:100E80002FEF3FEF35872487089582E00C94270DDC
:100E9000CF93DF93EC0180911401882331F083E03C
:100EA0000E94580D1816190634F081E090E09B83DB
:100EB0008A8380E090E0DF91CF910895FC019081DA
:100EC0009E5F908342E450E069E871E080E80C9412
:100ED000F00DFC0181819081913A59F4813209F041
:100EE00048C047E050E06DE071E080E00E94F00D06
:100EF00073C09132F1F5833291F49381892F90E0A0
:100F0000982F88272281822BA0E0B0E080930901EE
:100F100090930A01A0930B01B0930C015DC0803245
:100F200039F467E070E08DE091E00E94170E06C092
:100F3000823209F051C082818093140180911003A4
:100F4000882319F0EEEFFAE002C0E0E0F8E08091CB
:100F50000D0190910E01A0910F01B0911001803B05
:100F60009440A105B10539F48091140180FF1CC0A3
:100F700002C080E0089588E10FB6F8948093600085
:100F8000109260000FBEA895EE3F8AE0F80739F096
:100F90008091FE0A9091FF0A918380831DC0109278
:100FA000FF0A1092FE0A18C0EE3F2AE0F20731F065
:100FB000808191819093FF0A8093FE0A87E797E7EB
:100FC000918380839BE088E10FB6F894A895809385
:100FD00060000FBE9093600081E00895E0ECF2E0C5
:100FE0001382128288EE93E0A0E0B0E084839583C0
:100FF000A683B78383E591E0918380838FEF9FEF92
:10100000958784870895FC01918D228D892F90E02A
:10101000805C9F4F821B91098F7399270895FC0173
:10102000918D828D981731F0828DE80FF11D858D9D
:1010300090E008958FEF9FEF0895FC01918D828DD0
:10104000981761F0828DDF01A80FB11D5D968C911C
:10105000928D9F5F9F73928F90E008958FEF9FEF27
:10106000089581E299E0892B49F080E090E0892B96
:1010700029F00E94210981110C9400000895FC01BF
:10108000848DDF01A80FB11DA35ABF4F2C91848D11
:1010900090E001968F739927848FA689B7892C9346
:1010A000A089B1898C9180648C93938D848D9813E1
:1010B00006C00288F389E02D80818F7D80830895AA
:1010C000CF93DF93EC01888D8823C9F0EA89FB89EF
:1010D000808185FD05C0A889B9898C9186FD0FC0E6
:1010E0000FB607FCF5CF808185FFF2CFA889B989BB
:1010F0008C9185FFEDCFCE010E943F08E7CFDF91B5
:10110000CF910895EF92FF920F931F93CF93DF93A8
:10111000EC0181E0888F9B8D8C8D981305C0E88948
:10112000F989808185FD24C0F62E0B8D10E00F5FBC
:101130001F4F0F731127E02E8C8DE8120CC00FB6D5
:1011400007FCFACFE889F989808185FFF5CFCE01C8
:101150000E943F08F1CF8B8DFE01E80FF11DE35A8D
:10116000FF4FF0820B8FEA89FB898081806207C084
:10117000EE89FF896083E889F989808180648083B2
:1011800081E090E0DF91CF911F910F91FF90EF9060
:1011900008951F920F920FB60F9211242F938F93E1
:1011A0009F93EF93FF93E0912103F09122038081BD
:1011B000E0912703F091280382FD12C09081809175
:1011C0002A038F5F8F7320912B03821751F0E091D8
:1011D0002A03F0E0EF5EFC4F958F80932A0301C055
:1011E0008081FF91EF919F918F912F910F900FBE72
:1011F0000F901F9018951F920F920FB60F92112407
:101200002F933F934F935F936F937F938F939F930E
:10121000AF93BF93EF93FF9381E193E00E943F0868
:10122000FF91EF91BF91AF919F918F917F916F91BE
:101230005F914F913F912F910F900FBE0F901F9094
:10124000189581E193E00E94030821E0892B09F4BD
:1012500020E0822F0895E1E1F3E01382128288EE0C
:1012600093E0A0E0B0E084839583A683B78383E610
:1012700091E0918380838DEC90E0958784878CEC5E
:1012800090E09787868788EC90E0918B808B89EC43
:1012900090E0938B828B8AEC90E0958B848B8EEC24
:1012A00090E0978B868B118E128E138E148E08957C
:1012B000DC01FB0188E4808389E4818384E4828308
:1012C0001F969C911F979F709F5B93831F968D9194
:1012D0009C91509724E0969587952A95E1F78F7019
:1012E0008F5B848385E00895CF93DF93CDB7DEB71E
:1012F00069970FB6F894DEBF0FBECDBFFC01DB01CE
:101300008C918F5F8C93BE016F5F7F4F89E1DB0112
:101310001D928A95E9F729E0298384E08A8391E088
:101320009D8383E08E839F8398872A8721E22B8782
:101330009C8721E12D879F8722E2288B27E02B8B3A
:1013400025E02C8B8E8B20E430E0388F2F8B998F0B
:1013500082818B8397858089998B8A8B8381806832
:101360008D8B49E150E080E00E94F00D69960FB648
:10137000F894DEBF0FBECDBFDF91CF910895EF92FD
:10138000FF920F931F93CF93DF93FB0120812138AE
:1013900069F52381223251F5DC0112962C9130E05F
:1013A000448155814217530709F5EC010D851E85CF
:1013B000E12CF12C0115110591F0F80144815581C2
:1013C0006281738180E80E94F00D8F3FFFEF9F07DD
:1013D00081F0E80EF91ED8010D911C91EBCF81E050
:1013E0008A878B858F5F8B87C70105C080E090E07F
:1013F00002C08FEF9FEFDF91CF911F910F91FF9070
:10140000EF900895FC01DB01828190E014962D910C
:101410003C9115978217930741F511968C9111977E
:101420009C91913A99F48130F1F0833021F4BF011D
:10143000665F7F4F05C08230C1F4BF016F5E7F4F92
:1014400041E050E083810E94580D0DC0913269F453
:101450008B3021F412968C91828705C08A3029F452
:1014600012968C91818B81E0089580E00895FC01B3
:10147000A585B685109719F47687658709C08D9183
:101480009C911197009711F0DC01F9CF6D937C933B
:1014900027853089DB0114968D919C911597820FD9
:1014A000931F908B87870895BA01FC018381A9015E
:1014B00080640C94580DCF93DF93EC0181E08C8312
:1014C0008D839E01245F3F4F3F832E8319861886AC
:1014D00023E731E0398328838A871E861D86188A90
:1014E0001F86898B81EC8C870E94C00FBE01DF9123
:1014F000CF910C94790F8091C003811107C08EEABF
:1015000093E00E945B0A81E08093C0038EEA93E03F
:1015100008958F929F92AF92BF92CF92DF92EF92F7
:10152000FF920F931F93CF93DF937C018B016C018C
:1015300082E0C80ED11C4701E5E08E0E911CC0E090
:10154000D0E0F60161916F014AE050E0C8010E94CD
:101550009A0B5C016EE2C8010E943D0B8A0D9B1D37
:10156000C80FD91FC814D90461F74AE050E0F70149
:101570006581C8010E949A0B8C0F9D1FDF91CF914E
:101580001F910F91FF90EF90DF90CF90BF90AF90A1
:101590009F908F900895E8ECF3E08FE791E09183BE
:1015A00080831282138214821582089508950E9406
:1015B000CB120E94D60A81EE93E00E94D70E0E94C1
:1015C0002215C1E3D8E00E94AB152097E1F30E94F9
:1015D0003108F9CF08950E94C61ECF92DF92EF9294
:1015E000FF920F931F93CF93DF936C017A018B01CE
:1015F000C0E0D0E0CE15DF0589F0D8016D918D01F6
:10160000D601ED91FC910190F081E02DC601099584
:10161000892B11F47E0102C02196ECCFC701DF9126
:10162000CF911F910F91FF90EF90DF90CF90089591
:101630006115710579F0FB0101900020E9F7319700
:10164000AF01461B570BDC01ED91FC910280F38149
:10165000E02D099480E090E00895DB0114964D910F
:101660005C9115976D917C91DC01ED91FC9102806C
:10167000F381E02D09940C94180BDC01ED91FC91A1
:101680000190F081E02D09944F925F926F927F92CA
:10169000EF92FF920F931F93CF93DF93CDB7DEB7F7
:1016A000A1970FB6F894DEBF0FBECDBF7C01FA0143
:1016B000CB0119A2223008F42AE08E010F5D1F4FE2
:1016C000422E512C612C712CBF01A30192010E946A
:1016D0008E1CF901CA01015011096A3014F4605DD1
:1016E00001C0695CD8016C93232B242B252B61F757
:1016F000B801C7010E94180BA1960FB6F894DEBF7F
:101700000FBECDBFDF91CF911F910F91FF90EF9052
:101710007F906F905F904F9008952115310541F4AF
:10172000DC01ED91FC910190F081E02D642F099492
:101730000C94440B9A01462F50E060E070E00C944A
:101740008D0B8230A1F028F4882341F0813049F0DC
:101750000895833091F08430B1F0089510926E00B6
:10176000089580916F008D7F80936F000895809120
:1017700070008D7F809370000895809171008D7F3F
:10178000809371000895809172008F7B8093720026
:1017900008951F920F920FB60F9211242F933F932B
:1017A0004F935F936F937F938F939F93AF93BF9369
:1017B000EF93FF938091D1039091D203A091D30333
:1017C000B091D403892B8A2B8B2B51F18091CE03BE
:1017D000E091CF03F091D00390818927808380919D
:1017E000D1039091D203A091D303B091D4031816E2
:1017F00019061A061B060CF58091D1039091D203AD
:10180000A091D303B091D4030197A109B1098093AA
:10181000D1039093D203A093D303B093D4030DC00C
:1018200083E00E94A10B8091CE03E091CF03F09161
:10183000D0039081809589238083FF91EF91BF91A0
:10184000AF919F918F917F916F915F914F913F9158
:101850002F910F900FBE0F901F901895615030F090
:101860002091F100FC0120830196F8CF289884E6AE
:101870008093EA0308954091E5035091E603209197
:10188000E3033091E40342175307B4F49091E80066
:101890009570E1F39091E80092FD19C08093F100FA
:1018A0008091E5039091E60301968F739927892B28
:1018B00019F48EEF8093E8008091E5039091E603A0
:1018C00001969093E6038093E50381E0089580E01C
:1018D0000895CF92DF92EF92FF920F931F93CF93D1
:1018E000DF931F92CDB7DEB7182F062FE42E862F79
:1018F000880F8E5F99830E943B0C83E00E943B0C13
:10190000F12EC12E9981D92E8C2D8F19801798F424
:10191000F601E7FE02C0849101C080810E943B0C69
:10192000182F80E00E943B0C8123FFEFCF1ADF0AC3
:101930008111EACF01C081E00F90DF91CF911F911B
:101940000F91FF90EF90DF90CF9008958091D70096
:1019500081608093D70080EA8093D80089B5806148
:1019600089BD89B5826089BD09B400FEFDCF61E003
:1019700070E080E090E00E9484128091D8008F7C1B
:1019800080618093D8008091E000807F8093E000A8
:1019900008952FB7FC012083F89467706093E900E5
:1019A0000895CF93DF931F92CDB7DEB7682FCE0196
:1019B00001960E94C90C8091F20099819FBF0F90FF
:1019C000DF91CF910895EF92FF920F931F93CF93E2
:1019D000DF931F92CDB7DEB79091E903992311F001
:1019E00057FF03C08FEF9FEF2AC08A017B01682F4A
:1019F000CE0101960E94C90C8091F20090E0A801EE
:101A0000801791070CF4AC01842FF70194E6815004
:101A100038F028989093EA032091F1002193F7CFB2
:101A20004115510521F08091F200882321F0898130
:101A30008FBFCA0104C08BE68093E800F8CF0F90F7
:101A4000DF91CF911F910F91FF90EF900895CF9369
:101A5000DF931F92CDB7DEB741E050E0BE016F5F6C
:101A60007F4F0E94E30C019719F4898190E002C036
:101A70008FEF9FEF0F90DF91CF910895CF93DF937A
:101A80001F92CDB7DEB7682FCE0101960E94C90C18
:101A90009091E800892F807295FF04C09091F20028
:101AA00080E4891B99819FBF0F90DF91CF910895AA
:101AB0006F927F928F929F92AF92BF92CF92DF925E
:101AC000EF92FF920F931F93CF93DF931F92CDB7A7
:101AD000DEB7A82E6B01B42E052F8091E903882371
:101AE00069F0E42EF52E8AEF982E8A2D8072782EDA
:101AF0009AE3892E8A2D8074682E12C08FEF9FEF93
:101B000054C08A2D0E943E0D182F81110DC09A9449
:101B10009920A1F361E070E080E090E00E948412DF
:101B2000E114F10471F737C090E0E816F9060CF4FF
:101B30001E2D6A2DCE0101960E94C90C8091E800ED
:101B400085FF26C0812F90E0E81AF90A772029F056
:101B50001150A8F01092F100FBCFF601A7FE07C0CC
:101B6000115058F024912093F1003196F9CF115083
:101B700020F021912093F100FACFC80ED91E809158
:101B8000E80085FF0FC0E114F10411F461100AC0F0
:101B900089818FBFC5CF5D9884E68093EB038B2D41
:101BA000902F03C08092E800F3CF0F90DF91CF9188
:101BB0001F910F91FF90EF90DF90CF90BF90AF906B
:101BC0009F908F907F906F9008951092E9001092EF
:101BD000E6031092E5039093E4038093E3030895F2
:101BE000DF92EF92FF920F931F93CF93DF93D82E44
:101BF0008A017B01E40EF51EEB01CE15DF0571F0C5
:101C0000D7FE03C0FE01849101C088810E943B0C75
:101C100021968111F2CF8FEF9FEF01C0C801DF91B4
:101C2000CF911F910F91FF90EF90DF900895BF9299
:101C3000CF92DF92EF92FF920F931F93CF93DF9398
:101C40006C018B01EB019BEFB92E2097C1F07E0157
:101C5000C134D1051CF080E4E82EF12C8091E8001D
:101C600082FFFCCFC8018C1B9D0B6E2D8C0D9D1D22
:101C70000E942E0CB092E800CE19DF09E6CFC80111
:101C8000DF91CF911F910F91FF90EF90DF90CF9058
:101C9000BF9008958093E9008091F200882319F0A5
:101CA0008AE38093E80008951F920F920FB60F9277
:101CB00011242F933F934F935F936F937F938F9351
:101CC0009F93AF93BF93CF93EF93FF93C091E100A6
:101CD0008091E100837F8093E1008093E100C3FF66
:101CE0000FC01092E90081E08093EB001092EC00AD
:101CF00082E38093ED001092E90388E08093F00086
:101D0000C2FF19C083E00E944A0E8091EB03882332
:101D100039F08091EB0381508093EB03882389F1A4
:101D20008091EA03882339F08091EA0381508093FF
:101D3000EA03882341F1C4FF10C08091E2008E7E47
:101D400081608093E2008091E1008F7E8093E100CA
:101D50008091E7038E7E806111C0C0FF16C0809124
:101D6000E2008E7E80618093E2008091E1008E7EB1
:101D70008093E1008091E7038E7E81608093E7038A
:101D800004C05D9ACDCF289AD6CFFF91EF91CF9125
:101D9000BF91AF919F918F917F916F915F914F9183
:101DA0003F912F910F900FBE0F901F90189510929A
:101DB000E9031092E8031092E7030E94A60C8091B9
:101DC000E1008E7E8093E1008DE08093E200559AE1
:101DD000209AEEEFFFE7859194918B3F9C4D19F48B
:101DE00081E0809310030895EF92FF920F931F9369
:101DF000CF93DF937B01FC01C281D38100E010E02F
:101E0000209781F0E881F9810280F381E02DB7010C
:101E1000CE01099597FD08C0080F191F0884D985C0
:101E2000C02DEECFC80102C08FEF9FEFDF91CF91A1
:101E30001F910F91FF90EF9008950F931F93CF93F1
:101E4000DF938B01FC01C281D381209771F0E8817F
:101E5000F9810480F581E02DB801CE010995009744
:101E600031F40884D985C02DF0CF80E090E0DF9177
:101E7000CF911F910F9108950F931F93CF93DF93ED
:101E80008B01FC01C281D381209771F0E881F98137
:101E90000680F781E02DB801CE010995080F111DCC
:101EA0000884D985C02DF0CFF8011082DF91CF9141
:101EB0001F910F9108950F931F93CF93DF938B0181
:101EC000FC01C281D381209771F0E881F9810190F2
:101ED000F081E02DB801CE010995811105C008847B
:101EE000D985C02DF0CF80E0DF91CF911F910F9168
:101EF0000895CF93DF93FC01DB01218114968C912F
:101F0000149790E0820F911D0897B4F5C281D38198
:101F1000209719F47383628308C088859985009798
:101F200011F0EC01FACFB987A887808112968C93C3
:101F30001297818113968C931397908115968C91AB
:101F40001597890F808380E014969C9114978917C8
:101F500088F41696CD91DC911797C80FD11D988102
:101F6000C181D0E0CB5EDE4F988391819F5F9183EA
:101F70008F5FEACF81E001C080E0DF91CF910895CB
:101F80008091D90381110DC082E08093D50384E054
:101F90008093D6031092D8031092D70381E08093E8
:101FA000D90385ED93E00895CF93DF931F92CDB7CA
:101FB000DEB71982CE0101960E945E070E94C00F13
:101FC000BE016F5F7F4F0E94F40E89810F90DF91F9
:101FD000CF9108951F920F920FB60F921124CF92B6
:101FE000DF92EF92FF920F931F932F933F934F93A4
:101FF0005F936F937F938F939F93AF93BF93EF9371
:10200000FF93CF93DF93CDB7DEB76C97DEBFCDBF25
:102010001092E9008091E80083FF24C168E0CE01BE
:1020200045960E942E0C82EF8093E8008D8987FFF1
:1020300005C09091E80090FFFCCF03C09EEF909305
:10204000E800982F907609F0F1C09E892F89188DAD
:1020500091110CC0803829F48091E8038093F1003D
:1020600002C01092F1001092F100F5C0422F50E032
:10207000512B913051F48111EEC04130510509F0DE
:10208000EAC08091E8038D7F0BC0933061F4811129
:10209000E2C04130510509F0DEC08091E803826062
:1020A0008093E803D8C0953041F48091E80080FF28
:1020B000FCCF20682093E300CEC0963009F08CC09E
:1020C000EB8CFC8C123069F580E090E00E94E50D0D
:1020D0000E94D40F99E09E012F5F3F4F6901F901E3
:1020E000292F11922A95E9F799831A8391E09E830B
:1020F00090EA98879AEF99872091E5033091E6035B
:10210000275F3F4F3C832B838D83C7010E94E50DE2
:1021100049E050E0B60180E00E94F00D0E94D40F2B
:102120009AC0C7010E94E50D0E94C00FBE016B5E00
:102130007F4F0E941D0F009719F00CF08CC08FC0CC
:10214000113071F48B8D9C8D089719F481E0809388
:10215000E2038091E20381112FC06DED71E031C087
:10216000133009F07CC08F89882349F1823029F42B
:1021700040E86CE08BEF91E006C0813039F440E834
:102180006BE08FEE91E00E94690C63C0833009F030
:1021900066C00E94C00F8E010F5F1F4FB8010E94E2
:1021A0003C0FF80101900020E9F73197BF01601B57
:1021B000710B40E0C801E7CF6BEC71E002C068E052
:1021C00072E06115710509F44AC0FB01449150E0C9
:1021D00080E80E94F00D3FC0973009F440C098306D
:1021E00021F481E08093F10036C09930A1F583702D
:1021F000B1F5E6E1F1E081E021E036E39081992359
:1022000061F08093E9002093EB0091919093EC00B2
:102210003093ED008F5F873089F78EE78093EA0077
:102220001092EA008F898093E90315C08B8D9C8DF5
:102230000E94E50D898D811105C0CE0145960E9451
:10224000690707C00E94C00FBE016B5E7F4F0E94EE
:102250005B0F882321F08EEF8093E80003C081E2BA
:102260008093EB006C960FB6F894DEBF0FBECDBF27
:10227000DF91CF91FF91EF91BF91AF919F918F919E
:102280007F916F915F914F913F912F911F910F918E
:10229000FF90EF90DF90CF900F900FBE0F901F90A8
:1022A000189508951F920F920FB60F9211242F9335
:1022B0003F934F935F936F937F938F939F93AF93CE
:1022C000BF93EF93FF93E0911C01F0911D010995DD
:1022D000FF91EF91BF91AF919F918F917F916F91FE
:1022E0005F914F913F912F910F900FBE0F901F90D4
:1022F00018951F920F920FB60F9211242F933F93B0
:102300004F935F936F937F938F939F93AF93BF93FD
:10231000EF93FF93E0911E01F0911F010995FF914A
:10232000EF91BF91AF919F918F917F916F915F914D
:102330004F913F912F910F900FBE0F901F901895C6
:102340001F920F920FB60F9211242F933F934F932A
:102350005F936F937F938F939F93AF93BF93EF930D
:10236000FF93E0912001F09121010995FF91EF91F8
:10237000BF91AF919F918F917F916F915F914F919D
:102380003F912F910F900FBE0F901F9018951F92A5
:102390000F920FB60F9211242F933F934F935F9399
:1023A0006F937F938F939F93AF93BF93EF93FF931D
:1023B000E0912201F09123010995FF91EF91BF91E6
:1023C000AF919F918F917F916F915F914F913F91CD
:1023D0002F910F900FBE0F901F9018951F920F9284
:1023E0000FB60F9211242F933F934F935F936F93E8
:1023F0007F938F939F93AF93BF93EF93FF93E0915E
:102400002401F09125010995FF91EF91BF91AF91C2
:102410009F918F917F916F915F914F913F912F91FC
:102420000F900FBE0F901F9018951F920F920FB62E
:102430000F9211242F933F938F939F93AF93BF934A
:102440008091ED039091EE03A091EF03B091F00322
:102450003091EC0323E0230F2D3720F40196A11DCA
:10246000B11D05C026E8230F0296A11DB11D2093C2
:10247000EC038093ED039093EE03A093EF03B093EE
:10248000F0038091F1039091F203A091F303B091D6
:10249000F4030196A11DB11D8093F1039093F20303
:1024A000A093F303B093F403BF91AF919F918F91E9
:1024B0003F912F910F900FBE0F901F9018953FB72F
:1024C000F8948091F1039091F203A091F303B091FD
:1024D000F40326B5A89B05C02F3F19F00196A11D56
:1024E000B11D3FBFBA2FA92F982F8827820F911DAA
:1024F000A11DB11DBC01CD0142E0660F771F881FF1
:10250000991F4A95D1F708958F929F92AF92BF92EB
:10251000CF92DF92EF92FF926B017C010E945F12DB
:102520004B015C01C114D104E104F10401F10E94EA
:10253000EA0A0E945F12DC01CB0188199909AA09F5
:10254000BB09883E9340A105B10560F321E0C21AA2
:10255000D108E108F10888EE880E83E0981EA11CDE
:10256000B11CC114D104E104F10419F7DBCFFF90D1
:10257000EF90DF90CF90BF90AF909F908F90089595
:102580008230910538F0880F991F880F991F0597A1
:102590000197F1F70895789484B5826084BD84B57D
:1025A000816084BD85B5826085BD85B5816085BD4E
:1025B000EEE6F0E0808181608083E1E8F0E0108267
:1025C000808182608083808181608083E0E8F0E0A8
:1025D000808181608083E1E9F0E080818260808396
:1025E000808181608083E0E9F0E080818160808388
:1025F000E1ECF0E080818460808380818260808370
:10260000808181608083E3ECF0E080818160808361
:10261000E0ECF0E0808182608083E2ECF0E0808199
:1026200081608083EAE7F0E080818460808380813C
:1026300082608083808181608083808180688083E4
:10264000089590E0FC013197EF30F105B0F5EA5ABA
:10265000FF4F0C94CF1C809180008F7703C0809136
:1026600080008F7D80938000089580918000877F17
:10267000F9CF84B58F7702C084B58F7D84BD08956E
:10268000809190008F7707C0809190008F7D03C06C
:1026900080919000877F8093900008958091C00082
:1026A0008F7703C08091C0008F7D8093C000089514
:1026B0008091C200877F8093C2000895CF93DF93FB
:1026C00090E0FC01E55DFD4F2491FC01E65BFD4FD0
:1026D0008491882361F190E0880F991FFC01EB57EA
:1026E000FD4FC591D491FC01E958FD4FA591B491DE
:1026F000611109C09FB7F89488812095822388834F
:10270000EC912E230BC0623061F49FB7F8943881AE
:10271000822F809583238883EC912E2B2C939FBF4F
:1027200006C08FB7F894E8812E2B28838FBFDF91E6
:10273000CF9108951F93CF93DF93282F30E0F901B5
:10274000E45FFD4F8491F901E55DFD4FD491F901FE
:10275000E65BFD4FC491CC23C9F0162F81110E9476
:102760002113EC2FF0E0EE0FFF1FE958FD4FA5916C
:10277000B4918FB7F894111105C09C91ED2FE0959D
:10278000E92302C0EC91ED2BEC938FBFDF91CF9149
:102790001F910895FC01808191810C946A1DCF9353
:1027A000DF93EC0188819981009711F00E946A1DE6
:1027B000198218821D821C821B821A82DF91CF919E
:1027C00008950F931F93CF93DF93EC018B016F5FFD
:1027D0007F4F888199810E94021E009731F0998372
:1027E00088831B830A8381E001C080E0DF91CF9161
:1027F0001F910F910895CF93DF93EC018881998108
:10280000892B29F08A819B818617970760F4CE0176
:102810000E94E113882341F08C819D81892B19F45A
:10282000E881F981108281E0DF91CF910895EF92E4
:10283000FF920F931F93CF93DF93EC017B018A01EB
:10284000BA010E94FB13811104C0CE010E94CF1374
:1028500007C01D830C83B701888199810E94D41E13
:10286000CE01DF91CF911F910F91FF90EF900895CE
:10287000FC0111821082138212821582148261156A
:10288000710551F0FB0101900020E9F73197AF018C
:10289000461B570B0C9417140895CF93DF93EC014C
:1028A000FB018617970761F06081718161157105E1
:1028B00029F0448155810E94171402C00E94CF1351
:1028C000CE01DF91CF910895FC0111821082138215
:1028D0001282158214820C944D14CF93DF93EC0175
:1028E0006115710559F0FB0101900020E9F731975E
:1028F000AF01461B570B0E94171402C00E94CF1352
:10290000CE01DF91CF910895CF93DF9300D0CDB763
:10291000DEB7FC01118210821382128215821482AA
:1029200069831A82BE016F5F7F4F0E946D140F9002
:102930000F90DF91CF910895EF92FF920F931F9325
:10294000CF93DF93FC01248135816115710511F46A
:1029500080E019C041155105A9F07B01EC018A0105
:10296000020F131FB8010E94FB13882389F32881EB
:1029700039818C819D81B701820F931F0E94D41EE3
:102980001D830C8381E0DF91CF911F910F91FF9008
:10299000EF900895CF93DF93EC01FB0144815581C3
:1029A000608171810E949C14811103C0CE010E943C
:1029B000CF13CE01DF91CF9108958091FD039091C7
:1029C000FE03892B49F481E090E09093FE0380930D
:1029D000FD0340E064E606C01092FE031092FD0382
:1029E00040E060E081E10C944A068F92AF92CF9272
:1029F000EF920F9320E04AE069E08EE194E00E94BC
:102A00002C191F921F9283E08F9387E0882E96E007
:102A1000A92E25E0C22E34E0E32E00E021E042E0C2
:102A200067E285E094E00E945E040F900F900F90A3
:102A30000F91EF90CF90AF908F9008958EE194E03A
:102A40000C94D3185D9A289A40E855E260E070E053
:102A50008EE194E00E94571920E044E064E185E0B3
:102A600094E00E94EE0485E094E00E94050361E892
:102A700071E085E094E00E943B0B8EE194E00E94BF
:102A80000218181619063CF068EC70E080E090E03F
:102A90000E948412F2CF85E094E00E94050366E96B
:102AA00071E085E094E00E943B0B85E094E00E9499
:102AB00005038EE194E00E940218892B59F08EE103
:102AC00094E00E94481768EC70E080E090E00E947B
:102AD0008412EFCF85E094E00E9405036EE971E077
:102AE00085E094E00E943B0B6CED75E080E090E0A7
:102AF0000E94841280E1809381001092800084E023
:102B00008093BD028BE197EB9093BF028093BE024E
:102B1000909387008093860084E1809381008DEDFF
:102B200094E1909308018093070181E080936F0006
:102B300084EF91E00E949F0180E00E94B60540E092
:102B400060E081E10E94E50548E552E06CE271E059
:102B500081E10C945606CF92DF92EF92FF921F9381
:102B6000CF93DF93CDB7DEB762970FB6F894DEBF91
:102B70000FBECDBF8EE194E00E940218892B09F4AC
:102B800079C18EE194E00E9448177C01182F85E0FE
:102B900094E00E94050362EB71E085E094E00E94FE
:102BA0003B0BE11003C01092260164C1113019F4EF
:102BB000E09226015FC1809126016701DD24882310
:102BC00009F46CC0103839F481E090E09093FC0374
:102BD0008093FB0311C0123839F481E090E09093A8
:102BE000FA038093F90308C0123331F481E090E0D6
:102BF0009093F8038093F7034AE06FEF73E0C60108
:102C00000E94DB1E60E2CE0107960E9484146FEFE3
:102C100073E0CE010D960E943814BE01635F7F4FB2
:102C2000CE0101960E946414BE01695F7F4FCE0100
:102C300001960E94CA14BC0185E094E00E942D0B0D
:102C4000CE0101960E94CA13CE010D960E94CA13AE
:102C5000CE0107960E94CA138091FB039091FC035A
:102C60000197B1F48091F9039091FA03019781F4EF
:102C70008091F7039091F8038130910549F4909386
:102C8000F6038093F50361E285E094E00E94E2029E
:102C90006E2D84EF91E00E94AD01E4C0103829F45C
:102CA0001092FC031092FB030DC0123829F410920D
:102CB000FA031092F90306C0123321F41092F803BC
:102CC0001092F7036E2D84EF91E00E9417024AE004
:102CD0006FEF73E0C6010E94DB1E60E2CE01079633
:102CE0000E9484146FEF73E0CE010D960E94381499
:102CF000BE01635F7F4FCE0101960E946414BE0146
:102D0000695F7F4FCE0101960E94CA14BC0185E025
:102D100094E00E942D0BCE0101960E94CA13CE01B1
:102D20000D960E94CA13CE0107960E94CA13809185
:102D3000FB039091FC03892B09F094C08091F90367
:102D40009091FA03892B09F08DC08091F70390913F
:102D5000F803892B09F086C08091F5039091F60362
:102D6000019709F07FC01092F6031092F50360E816
:102D700084EF91E00E94AD0164E670E080E090E0B5
:102D80000E94841262E884EF91E00E94AD0164E643
:102D900070E080E090E00E94841264ED84EF91E0A6
:102DA0000E94AD0164E670E080E090E00E94841231
:102DB00084EF91E00E94700285E094E00E94050398
:102DC00068EB71E085E094E00E943B0B41E060E03D
:102DD00085E094E00E940C036DEB71E085E094E0E7
:102DE0000E943B0B10926F0040E060E081E10E9486
:102DF000E505289A5D9860E971E080E090E00E9426
:102E000084125D9A60E971E080E090E00E94841293
:102E10005D9860E971E080E090E00E9484125D9A24
:102E200060E971E080E090E00E9484125D9860E9C2
:102E300071E080E090E00E9484125D9A60E971E0A8
:102E400080E090E00E9484125D9860E971E080E08B
:102E500090E00E9484125D9A60E971E080E090E069
:102E60000E9484125D9868E270E080E090E00E9429
:102E700084125D9A62960FB6F894DEBF0FBECDBF86
:102E8000DF91CF911F91FF90EF90DF90CF90089549
:102E900020913F053091400528173907B9F49091EA
:102EA000FD048091FE04981789F0E091FD04F0E0A4
:102EB000E150FB4F80812091FD0430E02F5F3F4FB8
:102EC0002F7333272093FD0490E008958FEF9FEF39
:102ED00008951F93CF93DF93DC015C962D913C9175
:102EE0005D972115310539F481E090E013969C93AC
:102EF0008E9312973DC05196ED91FC91529750964A
:102F00009C915097892F80951FB75E964C915E9744
:102F100041FB772770F941FD6095F8944081772354
:102F200011F0492B01C048234083E9012197F1F7B3
:102F300048E0508160FF02C0592B01C058235083E4
:102F4000E9012197F1F76695415099F7772321F030
:102F500090818923808303C08081982B90831FBF39
:102F60005C968D919C915D970197F1F721E030E09F
:102F7000C901DF91CF911F910895089520913F05D8
:102F8000309140052817390771F49091FD04809124
:102F9000FE04981741F0E091FD04F0E0E150FB4F92
:102FA000808190E008958FEF9FEF08958091DB047A
:102FB00090E02091DC04821B910908959091DC043B
:102FC0008091DB04981750F4E92FF0E0E352FB4FB7
:102FD000208130E09F5F9093DC0402C02FEF3FEF31
:102FE000C9010895E091DC048091DB04E81730F416
:102FF000F0E0E352FB4F808190E008958FEF9FEF68
:103000000895089520913F0530914005281739070C
:1030100071F48091FE042091FD0490E0805C9F4F4C
:10302000821B910960E470E00E947A1C089580E0A0
:1030300090E00895E0913F05F0914005E817F90709
:1030400069F4A389B4899C918589809589238C939F
:103050001092400510923F0581E0089580E00895A8
:10306000CF93DF93EC018A8D9B8D892BF1F08091BA
:103070003F05909140058C179D07B9F0009711F01E
:103080000E941A188E8D8E7F8E8F1092FE041092E1
:10309000FD04D0934005C0933F05EB89FC899081E6
:1030A0008D89892B808381E001C080E0DF91CF9101
:1030B00008951F920F920FB60F9211242F933F93F2
:1030C0004F935F936F937F938F939F93AF93BF9330
:1030D000EF93FF93E0913F05F0914005309709F49D
:1030E00051C0968DA685B785858591FF04C09C91BA
:1030F000892329F447C09C91892309F043C0A389FF
:10310000B4899C918589809589238C938689978938
:103110000197F1F7608D718DA685B785558538E0EB
:1031200020E0CB010197F1F7822F90E095958795EC
:10313000282F4C91452309F02068315091F7868D56
:1031400081FD20958091FE0490E001968F73992770
:103150003091FD04381749F0A091FE04B0E0A15071
:10316000BB4F2C938093FE0403C0868D8160868FB5
:10317000828D938D0197F1F7A389B4899C918589FC
:10318000892B8C93FF91EF91BF91AF919F918F917C
:103190007F916F915F914F913F912F910F900FBE53
:1031A0000F901F90189521ED31E0FC0131832083B1
:1031B0000C941A181F93CF93DF93EC01162F6E8D8A
:1031C0006695617081E06827812F0E949A1361E003
:1031D000812F0E945E13612F70E0FB01E55DFD4FC2
:1031E000E491E88BFB01E65BFD4FE491F0E0EE0F2C
:1031F000FF1FE958FD4F859194919A8B898BDF9140
:10320000CF911F9108951F93CF93DF93EC01162F59
:1032100060E0812F0E945E138E8D81FD04C061E00D
:10322000812F0E949A131C87612F70E0FB01E55DDE
:10323000FD4FE491ED87FB01E65BFD4FE491F0E08B
:10324000EE0FFF1FE759FD4F859194919F878E8761
:10325000DF91CF911F9108951F93CF93DF93EC01DE
:10326000162F1B821A8288EE93E0A0E0B0E08C83D8
:103270009D83AE83BF8381ED91E0998388831F8A0C
:103280001E8A198E188E1B8E1A8E1D8E1C8E8E8D88
:103290008E7F20FB81F98E8F642FCE010E94DA1879
:1032A000612FCE01DF91CF911F910C940319CF9321
:1032B000DF93EC019A01AB011B8E1A8E198E188ECA
:1032C0001F8A1E8A60E079E08DE390E00E94B01CC6
:1032D000F9012430310518F0C901039702C081E0DB
:1032E00090E09D8F8C8F8C8598EF980F943048F0EC
:1032F00062EF680F643028F066EE680F633008F004
:1033000071C0B901769567956431710518F0635104
:10331000710902C061E070E07F8B6E8B369720F000
:10332000B9016550710902C061E070E0798F688F62
:10333000B901660F771F260F371F369527953695EB
:1033400027952D30310518F02C50310902C021E0AD
:1033500030E03B8F2A8F943058F092EF980F9430E2
:1033600038F08A51833008F442C0A0E0B0E041C098
:10337000A8E6B0E0E8E6F0E0808181608C938C857F
:1033800098EF980F943058F022EF280F243038F03F
:1033900026EE280F233018F020E030E002C02BE6A4
:1033A00030E03C8B2B8B943010F4845009C08E306D
:1033B00069F08F3069F0803169F0813169F08651B0
:1033C00091E001C0990F8A95EAF707C098E005C01F
:1033D00092E003C094E001C091E09D8B8C8D9D8DA7
:1033E0000197F1F7CE01DF91CF910C943018A8E648
:1033F000B0E0833008F4BECFE0E0F0E0BDCFFC01E8
:103400001382128288EE93E0A0E0B0E0848395837B
:10341000A683B78381EE91E091838083089581E054
:103420008093B7046093DA041092B9041092B80440
:1034300008951092AA0481E08093A8041092A70432
:1034400061E082E00E949A1361E083E00E949A1397
:10345000E9EBF0E080818E7F808380818D7F8083A7
:1034600088E48093B80085E48093BC0008951092AE
:10347000DC041092DB041092B9041092B8040C948E
:10348000191A0F934132E8F59091AA049111FCCFDB
:1034900032E03093AA040093A8043FEF30933D0438
:1034A0001092820440938104FB0163E874E0DB0125
:1034B0003A2F361B341718F431913D93F9CF1092FF
:1034C000A9043091A904880F832B8093A9048091CB
:1034D000A704813061F41092A7048091A90480931D
:1034E000BB008091BC0083FDF8CF85EC01C085EE68
:1034F0008093BC00222339F08091AA04823019F411
:10350000F9CF91E011C080913D048F3F69F0809127
:103510003D04803231F080913D04803321F094E00D
:1035200003C092E001C093E0892F0F9108950F939B
:10353000062F21E04091B8046AEB74E08091DA0430
:103540000E94411A1092B9041092B8041092B70464
:103550000F91089561E00C94971A613298F42091CC
:10356000AA04243089F460935F04FC0121E634E06E
:10357000D9018A2F821B861718F481918D93F9CF78
:1035800080E0089581E0089582E00895CF93DF936D
:103590001F92CDB7DEB769832091B7042223D1F003
:1035A0002091B804203240F021E030E0FC01338368
:1035B000228380E090E015C08091B904E82FF0E00C
:1035C000E654FB4F998190838F5F8093B904809379
:1035D000B80405C061E0CE0101960E94AD1A81E0F9
:1035E00090E00F90DF91CF910895CF92DF92EF920C
:1035F000FF920F931F93CF93DF937C01262F972F7A
:103600008A018091B704882391F0C62FD72F6E01CD
:10361000C40ED51ECC15DD0571F06991D701ED9171
:10362000FC910190F081E02DC7010995F3CF642F43
:10363000822F0E94AD1AC801DF91CF911F910F9187
:10364000FF90EF90DF90CF90089585ED8093BC00C0
:103650008091BC0084FDFCCF1092AA04089585ECF3
:103660008093BC001092AA0408951F920F920FB687
:103670000F9211242F933F934F935F936F937F93F8
:103680008F939F93AF93BF93EF93FF938091B90074
:10369000887F803609F49EC078F5883209F45DC0D1
:1036A00090F4803109F456C038F4882309F4F5C049
:1036B000883009F44FC0F5C0883109F44EC080321B
:1036C00009F45FC0EEC0803409F46AC058F4803356
:1036D00009F457C0883309F0E4C080933D040E9488
:1036E0002F1BDFC0803509F44FC0883509F45DC059
:1036F000883409F0D6C0D3C0883909F4C4C0A8F40E
:10370000883709F467C038F4883609F463C0803715
:1037100009F460C0C6C0883809F4B5C0803909F41E
:103720005FC0803809F0BDC05BC0803B09F483C036
:1037300038F4803A09F466C0883A09F47CC0B1C014
:10374000803C09F4A4C0883C09F4A1C0883B09F47A
:1037500087C0A7C08091A90410C090918204809175
:103760008104981770F5E091820481E08E0F8093B8
:103770008204F0E0ED57FB4F80818093BB0085EC25
:1037800083C080933D048BC0E091820481E08E0F62
:10379000809382048091BB00F0E0ED57FB4F808363
:1037A00090918204809181046BC0E091820481E059
:1037B0008E0F809382048091BB00F0E0ED57FB4FA9
:1037C00080838091A80481116AC081E08093A7045E
:1037D00084EA5EC083E08093AA0410923E04CFCFB7
:1037E00080913E04803208F04EC0E0913E0481E0BA
:1037F0008E0F80933E048091BB00F0E0E15CFB4FB4
:103800008083BDCF0E942F1B80913E04803230F414
:10381000E0913E04F0E0E15CFB4F108260913E04D9
:1038200070E0E091A304F091A4048FE394E0099583
:1038300010923E0436C084E08093AA041092600483
:1038400010925F04E091A504F091A604099580917F
:103850005F04811105C081E080935F0410926104D0
:10386000E091600481E08E0F80936004F0E0EF59F6
:10387000FB4F80818093BB009091600480915F0436
:10388000981708F47CCF85E88093BC000AC085ECCB
:103890008093BC001092AA0404C010923D040E94C0
:1038A000251BFF91EF91BF91AF919F918F917F91D8
:1038B0006F915F914F913F912F910F900FBE0F909D
:1038C0001F9018958BEA94E00C94FF19AA1BBB1B60
:1038D00051E107C0AA1FBB1FA617B70710F0A61B10
:1038E000B70B881F991F5A95A9F780959095BC0131
:1038F000CD01089597FB072E16F4009407D077FDAD
:1039000009D00E94661C07FC05D03EF49095819575
:103910009F4F0895709561957F4F0895A1E21A2EEB
:10392000AA1BBB1BFD010DC0AA1FBB1FEE1FFF1F63
:10393000A217B307E407F50720F0A21BB30BE40BB3
:10394000F50B661F771F881F991F1A9469F76095FA
:103950007095809590959B01AC01BD01CF010895B4
:10396000052E97FB1EF400940E94C71C57FD07D03C
:103970000E948E1C07FC03D04EF40C94C71C50957B
:103980004095309521953F4F4F4F5F4F089590954B
:103990008095709561957F4F8F4F9F4F0895EE0FE3
:1039A000FF1F0590F491E02D0994CF93DF938230AF
:1039B000910510F482E090E0E0914305F091440518
:1039C00020E030E0C0E0D0E0309711F1408151813B
:1039D00048175907C0F04817590761F4828193814D
:1039E000209719F09B838A832BC090934405809382
:1039F000430526C02115310519F04217530718F465
:103A00009A01BE01DF01EF010280F381E02DDCCFDE
:103A10002115310509F1281B390B2430310590F4AB
:103A200012968D919C9113976115710521F0FB0100
:103A30009383828304C09093440580934305FD01E2
:103A4000329644C0FD01E20FF31F819391932250FF
:103A500031092D933C933AC02091410530914205A4
:103A6000232B41F420910201309103013093420550
:103A7000209341052091000130910101211531056C
:103A800041F42DB73EB74091040150910501241B2C
:103A9000350BE0914105F0914205E217F307A0F4E0
:103AA0002E1B3F0B2817390778F0AC014E5F5F4F94
:103AB0002417350748F04E0F5F1F5093420540937F
:103AC00041058193919302C0E0E0F0E0CF01DF91E6
:103AD000CF9108950F931F93CF93DF93009709F42D
:103AE0008CC0FC0132971382128200914305109121
:103AF00044050115110581F420813181820F931F46
:103B000020914105309142052817390779F5F09346
:103B10004205E093410571C0D80140E050E0AE1786
:103B2000BF0750F412962D913C911397AD012115CA
:103B3000310509F1D901F3CF9D01DA0133832283E5
:103B400060817181860F971F8217930769F4EC01DA
:103B500028813981260F371F2E5F3F4F3183208305
:103B60008A819B8193838283452B29F4F0934405BA
:103B7000E093430542C01396FC93EE931297ED0138
:103B8000499159919E01240F351FE217F30771F4F3
:103B900080819181840F951F029611969C938E933C
:103BA0008281938113969C938E931297E0E0F0E0CC
:103BB000D80112968D919C911397009719F0F801F6
:103BC0008C01F6CF8D919C9198012E5F3F4F820F13
:103BD000931F20914105309142052817390769F458
:103BE000309729F4109244051092430502C01382C5
:103BF00012821093420500934105DF91CF911F91EE
:103C00000F910895A0E0B0E0E8E0FEE10C94141FED
:103C1000EC01009721F4CB010E94D51CB2C0FC013D
:103C2000E60FF71F9C0122503109E217F30708F451
:103C3000A6C0D9010D911C91119706171707B0F076
:103C40000530110508F499C0C80104978617970735
:103C500008F493C002501109061B170B019311932E
:103C60006D937C93CF010E946A1D87C07B01E01A8F
:103C7000F10A3C01600E711EA0914305B09144050C
:103C800080E090E0812C912C109709F444C0AD9015
:103C9000BC901197A615B705A1F5650142E0C40EC9
:103CA000D11CCE14DF0468F1C5018E199F09AC0147
:103CB0004E5F5F4F1296FC9012971396AC91453071
:103CC000510540F0F282A38391838083D9016D93E3
:103CD0007C9309C00E5F1F4FA00EB11EF901B18287
:103CE000A082EF2DFA2F8114910431F0D4011396A4
:103CF000FC93EE93129741C0F0934405E093430583
:103D00003CC08A159B0508F4C5014D0112960D9023
:103D1000BC91A02DB9CFA0914105B0914205A61547
:103D2000B705E1F486179707C8F4809100019091D8
:103D30000101009741F48DB79EB740910401509165
:103D40000501841B950BE817F907C8F4F0934205A9
:103D5000E0934105F901718360830FC0CB010E949C
:103D6000D51C7C01009759F0A801BE010E94CB1E12
:103D7000CE010E946A1DC70104C0CE0102C080E0CE
:103D800090E0CDB7DEB7EEE00C94301F81E090E01C
:103D9000F8940C94471FFB01DC0102C001900D92C6
:103DA00041505040D8F70895FB01DC0101900D927D
:103DB0000020E1F70895BB274A3031F4992322F41B
:103DC000BDE2909581959F4F0C94E71EBB27FB01A8
:103DD0005527AA27880F991FAA1FA41710F0A41B04
:103DE00083955051B9F7A05DAA3308F0A95DA1935E
:103DF000009779F7B111B1931192CB010C94001F88
:103E0000DC01FC01672F71917723E1F7329704C041
:103E10007C916D9370836291AE17BF07C8F30895CC
:103E20002F923F924F925F926F927F928F929F92CA
:103E3000AF92BF92CF92DF92EF92FF920F931F93B8
:103E4000CF93DF93CDB7DEB7CA1BDB0B0FB6F89469
:103E5000DEBF0FBECDBF09942A88398848885F84A9
:103E60006E847D848C849B84AA84B984C884DF801A
:103E7000EE80FD800C811B81AA81B981CE0FD11DFE
:103E80000FB6F894DEBF0FBECDBFED01089511E06F
:103E9000C0E5D1E004C0FE010E94CF1C2196C135CF
:083EA000D107C9F7F894FFCF28
:103EA800000045052000FFD906FFFFFFFF00E100E5
:103EB800000000000000C180810000005111511174
:103EC80051115111511101000000005A02ED0A0070
:103ED800000000E202ED0A4C03E002E102EB0A00F6
:103EE800000000E202ED0AEE04CD03E103CD040078
:103EF800000000010748072B073B071707280700A2
:103F08000000008208ED0A03081D080F0860080079
:103F1800000000020A7409BF09580900000000895E
:103F28000A50726573732061206B657920746F2065
:103F3800626567696E0050726573736564005365E6
:103F48007269616C206461746120646973706C616A
:103F580079004B65793A200053656E7400435452DA
:103F68004C2B414C542B44454C4554450000000013
:103F7800006917ED0A02184817BE17BD17000000A0
:0E3F880000C61AF51AD617DE17F21701180038
:00000001FF
